{
  "contractName": "MedicineSupplyChain",
  "abi": [
    {
      "anonymous": false,
      "inputs": [
        {
          "indexed": false,
          "internalType": "uint256",
          "name": "batchNumber",
          "type": "uint256"
        },
        {
          "indexed": false,
          "internalType": "string",
          "name": "name",
          "type": "string"
        },
        {
          "indexed": false,
          "internalType": "string",
          "name": "manufacturer",
          "type": "string"
        }
      ],
      "name": "MedicineRegistered",
      "type": "event"
    },
    {
      "anonymous": false,
      "inputs": [
        {
          "indexed": false,
          "internalType": "uint256",
          "name": "batchNumber",
          "type": "uint256"
        },
        {
          "indexed": false,
          "internalType": "string",
          "name": "status",
          "type": "string"
        }
      ],
      "name": "StatusUpdated",
      "type": "event"
    },
    {
      "constant": true,
      "inputs": [
        {
          "internalType": "uint256",
          "name": "",
          "type": "uint256"
        }
      ],
      "name": "medicines",
      "outputs": [
        {
          "internalType": "uint256",
          "name": "batchNumber",
          "type": "uint256"
        },
        {
          "internalType": "string",
          "name": "name",
          "type": "string"
        },
        {
          "internalType": "string",
          "name": "manufacturer",
          "type": "string"
        },
        {
          "internalType": "string",
          "name": "expiryDate",
          "type": "string"
        },
        {
          "internalType": "string",
          "name": "status",
          "type": "string"
        }
      ],
      "payable": false,
      "stateMutability": "view",
      "type": "function"
    },
    {
      "constant": true,
      "inputs": [
        {
          "internalType": "address",
          "name": "",
          "type": "address"
        },
        {
          "internalType": "uint256",
          "name": "",
          "type": "uint256"
        }
      ],
      "name": "userTransactions",
      "outputs": [
        {
          "internalType": "uint256",
          "name": "",
          "type": "uint256"
        }
      ],
      "payable": false,
      "stateMutability": "view",
      "type": "function"
    },
    {
      "constant": false,
      "inputs": [
        {
          "internalType": "uint256",
          "name": "batchNumber",
          "type": "uint256"
        },
        {
          "internalType": "string",
          "name": "name",
          "type": "string"
        },
        {
          "internalType": "string",
          "name": "manufacturer",
          "type": "string"
        },
        {
          "internalType": "string",
          "name": "expiryDate",
          "type": "string"
        }
      ],
      "name": "registerMedicine",
      "outputs": [],
      "payable": false,
      "stateMutability": "nonpayable",
      "type": "function"
    },
    {
      "constant": false,
      "inputs": [
        {
          "internalType": "uint256",
          "name": "batchNumber",
          "type": "uint256"
        },
        {
          "internalType": "string",
          "name": "newStatus",
          "type": "string"
        }
      ],
      "name": "updateMedicineStatus",
      "outputs": [],
      "payable": false,
      "stateMutability": "nonpayable",
      "type": "function"
    },
    {
      "constant": true,
      "inputs": [],
      "name": "getUserTransactions",
      "outputs": [
        {
          "internalType": "uint256[]",
          "name": "",
          "type": "uint256[]"
        }
      ],
      "payable": false,
      "stateMutability": "view",
      "type": "function"
    },
    {
      "constant": true,
      "inputs": [
        {
          "internalType": "uint256",
          "name": "batchNumber",
          "type": "uint256"
        }
      ],
      "name": "getMedicineDetails",
      "outputs": [
        {
          "internalType": "string",
          "name": "name",
          "type": "string"
        },
        {
          "internalType": "string",
          "name": "manufacturer",
          "type": "string"
        },
        {
          "internalType": "string",
          "name": "expiryDate",
          "type": "string"
        },
        {
          "internalType": "string",
          "name": "status",
          "type": "string"
        }
      ],
      "payable": false,
      "stateMutability": "view",
      "type": "function"
    }
  ],
  "bytecode": "0x608060405234801561001057600080fd5b50611296806100206000396000f3fe608060405234801561001057600080fd5b50600436106100625760003560e01c80632f5f957c146100675780636fe691dc1461022e57806381c8abc7146102865780639a7594611461043d578063b842ec44146104e8578063c85e766d14610526575b600080fd5b6100846004803603602081101561007d57600080fd5b50356106f4565b6040518080602001806020018060200180602001858103855289818151815260200191508051906020019080838360005b838110156100cd5781810151838201526020016100b5565b50505050905090810190601f1680156100fa5780820380516001836020036101000a031916815260200191505b5085810384528851815288516020918201918a019080838360005b8381101561012d578181015183820152602001610115565b50505050905090810190601f16801561015a5780820380516001836020036101000a031916815260200191505b50858103835287518152875160209182019189019080838360005b8381101561018d578181015183820152602001610175565b50505050905090810190601f1680156101ba5780820380516001836020036101000a031916815260200191505b50858103825286518152865160209182019188019080838360005b838110156101ed5781810151838201526020016101d5565b50505050905090810190601f16801561021a5780820380516001836020036101000a031916815260200191505b509850505050505050505060405180910390f35b610236610a1e565b60408051602080825283518183015283519192839290830191858101910280838360005b8381101561027257818101518382015260200161025a565b505050509050019250505060405180910390f35b61043b6004803603608081101561029c57600080fd5b81359190810190604081016020820135600160201b8111156102bd57600080fd5b8201836020820111156102cf57600080fd5b803590602001918460018302840111600160201b831117156102f057600080fd5b91908080601f0160208091040260200160405190810160405280939291908181526020018383808284376000920191909152509295949360208101935035915050600160201b81111561034257600080fd5b82018360208201111561035457600080fd5b803590602001918460018302840111600160201b8311171561037557600080fd5b91908080601f0160208091040260200160405190810160405280939291908181526020018383808284376000920191909152509295949360208101935035915050600160201b8111156103c757600080fd5b8201836020820111156103d957600080fd5b803590602001918460018302840111600160201b831117156103fa57600080fd5b91908080601f016020809104026020016040519081016040528093929190818152602001838380828437600092019190915250929550610a80945050505050565b005b61043b6004803603604081101561045357600080fd5b81359190810190604081016020820135600160201b81111561047457600080fd5b82018360208201111561048657600080fd5b803590602001918460018302840111600160201b831117156104a757600080fd5b91908080601f016020809104026020016040519081016040528093929190818152602001838380828437600092019190915250929550610d79945050505050565b610514600480360360408110156104fe57600080fd5b506001600160a01b038135169060200135610f16565b60408051918252519081900360200190f35b6105436004803603602081101561053c57600080fd5b5035610f44565b6040518086815260200180602001806020018060200180602001858103855289818151815260200191508051906020019080838360005b8381101561059257818101518382015260200161057a565b50505050905090810190601f1680156105bf5780820380516001836020036101000a031916815260200191505b5085810384528851815288516020918201918a019080838360005b838110156105f25781810151838201526020016105da565b50505050905090810190601f16801561061f5780820380516001836020036101000a031916815260200191505b50858103835287518152875160209182019189019080838360005b8381101561065257818101518382015260200161063a565b50505050905090810190601f16801561067f5780820380516001836020036101000a031916815260200191505b50858103825286518152865160209182019188019080838360005b838110156106b257818101518382015260200161069a565b50505050905090810190601f1680156106df5780820380516001836020036101000a031916815260200191505b50995050505050505050505060405180910390f35b60608060608060008060008781526020019081526020016000206001018054600181600116156101000203166002900490501161076d576040805162461bcd60e51b81526020600482015260126024820152711359591a58da5b99481b9bdd08199bdd5b9960721b604482015290519081900360640190fd5b61077561119a565b6000808781526020019081526020016000206040518060a001604052908160008201548152602001600182018054600181600116156101000203166002900480601f0160208091040260200160405190810160405280929190818152602001828054600181600116156101000203166002900480156108355780601f1061080a57610100808354040283529160200191610835565b820191906000526020600020905b81548152906001019060200180831161081857829003601f168201915b5050509183525050600282810180546040805160206001841615610100026000190190931694909404601f810183900483028501830190915280845293810193908301828280156108c75780601f1061089c576101008083540402835291602001916108c7565b820191906000526020600020905b8154815290600101906020018083116108aa57829003601f168201915b505050918352505060038201805460408051602060026001851615610100026000190190941693909304601f810184900484028201840190925281815293820193929183018282801561095b5780601f106109305761010080835404028352916020019161095b565b820191906000526020600020905b81548152906001019060200180831161093e57829003601f168201915b505050918352505060048201805460408051602060026001851615610100026000190190941693909304601f81018490048402820184019092528181529382019392918301828280156109ef5780601f106109c4576101008083540402835291602001916109ef565b820191906000526020600020905b8154815290600101906020018083116109d257829003601f168201915b505050919092525050506020810151604082015160608301516080909301519199909850919650945092505050565b33600090815260016020908152604091829020805483518184028101840190945280845260609392830182828015610a7557602002820191906000526020600020905b815481526020019060010190808311610a61575b505050505090505b90565b6000835111610ad6576040805162461bcd60e51b815260206004820152601d60248201527f4d65646963696e65206e616d652063616e6e6f7420626520656d707479000000604482015290519081900360640190fd5b6000825111610b2c576040805162461bcd60e51b815260206004820152601c60248201527f4d616e7566616374757265722063616e6e6f7420626520656d70747900000000604482015290519081900360640190fd5b6000815111610b82576040805162461bcd60e51b815260206004820152601b60248201527f45787069727920646174652063616e6e6f7420626520656d7074790000000000604482015290519081900360640190fd5b6040805160a08101825285815260208082018681528284018690526060830185905283518085018552600c81526b1b585b9d599858dd1d5c995960a21b8184015260808401526000888152808352939093208251815592518051929392610bef92600185019201906111c9565b5060408201518051610c0b9160028401916020909101906111c9565b5060608201518051610c279160038401916020909101906111c9565b5060808201518051610c439160048401916020909101906111c9565b50503360009081526001602081815260408084208054938401815584528184209092018890558151888152606081830181815289519183019190915288517fa74ad5f7d936f1327fca065f1f8033e9efb860361f65d8e79112d628fdfae11696508a958a958a95908501926080860192918801918190849084905b83811015610cd6578181015183820152602001610cbe565b50505050905090810190601f168015610d035780820380516001836020036101000a031916815260200191505b50838103825284518152845160209182019186019080838360005b83811015610d36578181015183820152602001610d1e565b50505050905090810190601f168015610d635780820380516001836020036101000a031916815260200191505b509550505050505060405180910390a150505050565b600080600084815260200190815260200160002060010180546001816001161561010002031660029004905011610df7576040805162461bcd60e51b815260206004820152601760248201527f4d65646963696e65206e6f742072656769737465726564000000000000000000604482015290519081900360640190fd5b6000815111610e4d576040805162461bcd60e51b815260206004820152601a60248201527f4e6577207374617475732063616e6e6f7420626520656d707479000000000000604482015290519081900360640190fd5b6000828152602081815260409091208251610e70926004909201918401906111c9565b507fdc280875b120650ffe3edf5f724f07fd086361a32c2a387fe34b495f5679e77d82826040518083815260200180602001828103825283818151815260200191508051906020019080838360005b83811015610ed7578181015183820152602001610ebf565b50505050905090810190601f168015610f045780820380516001836020036101000a031916815260200191505b50935050505060405180910390a15050565b60016020528160005260406000208181548110610f2f57fe5b90600052602060002001600091509150505481565b600060208181529181526040908190208054600180830180548551600293821615610100026000190190911692909204601f8101879004870283018701909552848252919492939092830182828015610fde5780601f10610fb357610100808354040283529160200191610fde565b820191906000526020600020905b815481529060010190602001808311610fc157829003601f168201915b50505060028085018054604080516020601f60001961010060018716150201909416959095049283018590048502810185019091528181529596959450909250908301828280156110705780601f1061104557610100808354040283529160200191611070565b820191906000526020600020905b81548152906001019060200180831161105357829003601f168201915b5050505060038301805460408051602060026001851615610100026000190190941693909304601f81018490048402820184019092528181529495949350908301828280156111005780601f106110d557610100808354040283529160200191611100565b820191906000526020600020905b8154815290600101906020018083116110e357829003601f168201915b5050505060048301805460408051602060026001851615610100026000190190941693909304601f81018490048402820184019092528181529495949350908301828280156111905780601f1061116557610100808354040283529160200191611190565b820191906000526020600020905b81548152906001019060200180831161117357829003601f168201915b5050505050905085565b6040518060a0016040528060008152602001606081526020016060815260200160608152602001606081525090565b828054600181600116156101000203166002900490600052602060002090601f016020900481019282601f1061120a57805160ff1916838001178555611237565b82800160010185558215611237579182015b8281111561123757825182559160200191906001019061121c565b50611243929150611247565b5090565b610a7d91905b80821115611243576000815560010161124d56fea265627a7a723158201798489aa9c5aa349de7252fe8d16ca0413e6559aed966ad2770d58b7f4e4f4c64736f6c63430005100032",
  "source": "pragma solidity ^0.5.0;\r\n\r\ncontract MedicineSupplyChain {\r\n    struct Medicine {\r\n        uint256 batchNumber;\r\n        string name;\r\n        string manufacturer;\r\n        string expiryDate;\r\n        string status;  // Example statuses: \"manufactured\", \"shipped\", \"received\"\r\n    }\r\n\r\n    mapping(uint256 => Medicine) public medicines;\r\n    mapping(address => uint256[]) public userTransactions; // to track batch numbers registered by user\r\n\r\n    event MedicineRegistered(uint256 batchNumber, string name, string manufacturer);\r\n    event StatusUpdated(uint256 batchNumber, string status);\r\n\r\n    // Register medicine\r\n    function registerMedicine(uint256 batchNumber, string memory name, string memory manufacturer, string memory expiryDate) public {\r\n        require(bytes(name).length > 0, \"Medicine name cannot be empty\");\r\n        require(bytes(manufacturer).length > 0, \"Manufacturer cannot be empty\");\r\n        require(bytes(expiryDate).length > 0, \"Expiry date cannot be empty\");\r\n\r\n        medicines[batchNumber] = Medicine(batchNumber, name, manufacturer, expiryDate, \"manufactured\");\r\n        userTransactions[msg.sender].push(batchNumber); // Tracking the batch number registered by the user\r\n        emit MedicineRegistered(batchNumber, name, manufacturer);\r\n    }\r\n\r\n    // Update medicine status\r\n    function updateMedicineStatus(uint256 batchNumber, string memory newStatus) public {\r\n        require(bytes(medicines[batchNumber].name).length > 0, \"Medicine not registered\");\r\n        require(bytes(newStatus).length > 0, \"New status cannot be empty\");\r\n\r\n        medicines[batchNumber].status = newStatus;\r\n        emit StatusUpdated(batchNumber, newStatus);\r\n    }\r\n\r\n    // Get all transactions made by the user\r\n    function getUserTransactions() public view returns (uint256[] memory) {\r\n        return userTransactions[msg.sender];\r\n    }\r\n\r\n    // Get details of a medicine by batch number\r\n    function getMedicineDetails(uint256 batchNumber) public view returns (string memory name, string memory manufacturer, string memory expiryDate, string memory status) {\r\n        require(bytes(medicines[batchNumber].name).length > 0, \"Medicine not found\");\r\n        \r\n        Medicine memory medicine = medicines[batchNumber];\r\n        return (medicine.name, medicine.manufacturer, medicine.expiryDate, medicine.status);\r\n    }\r\n}\r\n\r\n",
  "sourcePath": "C:\\Users\\Shivansh Sood\\Desktop\\pharmachain\\pharmachain-backend\\contracts\\MedicineSupplyChain.sol",
  "compiler": {
    "name": "solc",
    "version": "0.5.16+commit.9c3226ce.Emscripten.clang"
  },
  "schemaVersion": "3.4.16",
  "updatedAt": "2024-10-07T19:32:16.895Z",
  "devdoc": {
    "methods": {}
  },
  "userdoc": {
    "methods": {}
  }
}