{
  "contractName": "MedicineSupplyChain",
  "abi": [
    {
      "anonymous": false,
      "inputs": [
        {
          "indexed": false,
          "internalType": "uint256",
          "name": "batchNumber",
          "type": "uint256"
        },
        {
          "indexed": false,
          "internalType": "string",
          "name": "name",
          "type": "string"
        },
        {
          "indexed": false,
          "internalType": "string",
          "name": "manufacturer",
          "type": "string"
        }
      ],
      "name": "MedicineRegistered",
      "type": "event"
    },
    {
      "anonymous": false,
      "inputs": [
        {
          "indexed": false,
          "internalType": "uint256",
          "name": "batchNumber",
          "type": "uint256"
        },
        {
          "indexed": false,
          "internalType": "string",
          "name": "status",
          "type": "string"
        }
      ],
      "name": "StatusUpdated",
      "type": "event"
    },
    {
      "constant": true,
      "inputs": [
        {
          "internalType": "uint256",
          "name": "",
          "type": "uint256"
        }
      ],
      "name": "medicines",
      "outputs": [
        {
          "internalType": "uint256",
          "name": "batchNumber",
          "type": "uint256"
        },
        {
          "internalType": "string",
          "name": "name",
          "type": "string"
        },
        {
          "internalType": "string",
          "name": "manufacturer",
          "type": "string"
        },
        {
          "internalType": "string",
          "name": "expiryDate",
          "type": "string"
        },
        {
          "internalType": "string",
          "name": "status",
          "type": "string"
        }
      ],
      "payable": false,
      "stateMutability": "view",
      "type": "function"
    },
    {
      "constant": false,
      "inputs": [
        {
          "internalType": "uint256",
          "name": "batchNumber",
          "type": "uint256"
        },
        {
          "internalType": "string",
          "name": "name",
          "type": "string"
        },
        {
          "internalType": "string",
          "name": "manufacturer",
          "type": "string"
        },
        {
          "internalType": "string",
          "name": "expiryDate",
          "type": "string"
        }
      ],
      "name": "registerMedicine",
      "outputs": [],
      "payable": false,
      "stateMutability": "nonpayable",
      "type": "function"
    },
    {
      "constant": false,
      "inputs": [
        {
          "internalType": "uint256",
          "name": "batchNumber",
          "type": "uint256"
        },
        {
          "internalType": "string",
          "name": "newStatus",
          "type": "string"
        }
      ],
      "name": "updateMedicineStatus",
      "outputs": [],
      "payable": false,
      "stateMutability": "nonpayable",
      "type": "function"
    }
  ],
  "bytecode": "0x608060405234801561001057600080fd5b50610ab6806100206000396000f3fe608060405234801561001057600080fd5b50600436106100415760003560e01c806381c8abc7146100465780639a759461146101fd578063c85e766d146102a8575b600080fd5b6101fb6004803603608081101561005c57600080fd5b81359190810190604081016020820135600160201b81111561007d57600080fd5b82018360208201111561008f57600080fd5b803590602001918460018302840111600160201b831117156100b057600080fd5b91908080601f0160208091040260200160405190810160405280939291908181526020018383808284376000920191909152509295949360208101935035915050600160201b81111561010257600080fd5b82018360208201111561011457600080fd5b803590602001918460018302840111600160201b8311171561013557600080fd5b91908080601f0160208091040260200160405190810160405280939291908181526020018383808284376000920191909152509295949360208101935035915050600160201b81111561018757600080fd5b82018360208201111561019957600080fd5b803590602001918460018302840111600160201b831117156101ba57600080fd5b91908080601f016020809104026020016040519081016040528093929190818152602001838380828437600092019190915250929550610476945050505050565b005b6101fb6004803603604081101561021357600080fd5b81359190810190604081016020820135600160201b81111561023457600080fd5b82018360208201111561024657600080fd5b803590602001918460018302840111600160201b8311171561026757600080fd5b91908080601f016020809104026020016040519081016040528093929190818152602001838380828437600092019190915250929550610649945050505050565b6102c5600480360360208110156102be57600080fd5b5035610790565b6040518086815260200180602001806020018060200180602001858103855289818151815260200191508051906020019080838360005b838110156103145781810151838201526020016102fc565b50505050905090810190601f1680156103415780820380516001836020036101000a031916815260200191505b5085810384528851815288516020918201918a019080838360005b8381101561037457818101518382015260200161035c565b50505050905090810190601f1680156103a15780820380516001836020036101000a031916815260200191505b50858103835287518152875160209182019189019080838360005b838110156103d45781810151838201526020016103bc565b50505050905090810190601f1680156104015780820380516001836020036101000a031916815260200191505b50858103825286518152865160209182019188019080838360005b8381101561043457818101518382015260200161041c565b50505050905090810190601f1680156104615780820380516001836020036101000a031916815260200191505b50995050505050505050505060405180910390f35b6040805160a08101825285815260208082018681528284018690526060830185905283518085018552600c81526b1b585b9d599858dd1d5c995960a21b81840152608084015260008881528083529390932082518155925180519293926104e392600185019201906109e6565b50604082015180516104ff9160028401916020909101906109e6565b506060820151805161051b9160038401916020909101906109e6565b50608082015180516105379160048401916020909101906109e6565b509050507fa74ad5f7d936f1327fca065f1f8033e9efb860361f65d8e79112d628fdfae116848484604051808481526020018060200180602001838103835285818151815260200191508051906020019080838360005b838110156105a657818101518382015260200161058e565b50505050905090810190601f1680156105d35780820380516001836020036101000a031916815260200191505b50838103825284518152845160209182019186019080838360005b838110156106065781810151838201526020016105ee565b50505050905090810190601f1680156106335780820380516001836020036101000a031916815260200191505b509550505050505060405180910390a150505050565b6000806000848152602001908152602001600020600101805460018160011615610100020316600290049050116106c7576040805162461bcd60e51b815260206004820152601760248201527f4d65646963696e65206e6f742072656769737465726564000000000000000000604482015290519081900360640190fd5b60008281526020818152604090912082516106ea926004909201918401906109e6565b507fdc280875b120650ffe3edf5f724f07fd086361a32c2a387fe34b495f5679e77d82826040518083815260200180602001828103825283818151815260200191508051906020019080838360005b83811015610751578181015183820152602001610739565b50505050905090810190601f16801561077e5780820380516001836020036101000a031916815260200191505b50935050505060405180910390a15050565b600060208181529181526040908190208054600180830180548551600293821615610100026000190190911692909204601f810187900487028301870190955284825291949293909283018282801561082a5780601f106107ff5761010080835404028352916020019161082a565b820191906000526020600020905b81548152906001019060200180831161080d57829003601f168201915b50505060028085018054604080516020601f60001961010060018716150201909416959095049283018590048502810185019091528181529596959450909250908301828280156108bc5780601f10610891576101008083540402835291602001916108bc565b820191906000526020600020905b81548152906001019060200180831161089f57829003601f168201915b5050505060038301805460408051602060026001851615610100026000190190941693909304601f810184900484028201840190925281815294959493509083018282801561094c5780601f106109215761010080835404028352916020019161094c565b820191906000526020600020905b81548152906001019060200180831161092f57829003601f168201915b5050505060048301805460408051602060026001851615610100026000190190941693909304601f81018490048402820184019092528181529495949350908301828280156109dc5780601f106109b1576101008083540402835291602001916109dc565b820191906000526020600020905b8154815290600101906020018083116109bf57829003601f168201915b5050505050905085565b828054600181600116156101000203166002900490600052602060002090601f016020900481019282601f10610a2757805160ff1916838001178555610a54565b82800160010185558215610a54579182015b82811115610a54578251825591602001919060010190610a39565b50610a60929150610a64565b5090565b610a7e91905b80821115610a605760008155600101610a6a565b9056fea265627a7a723158204f2914300f2339674950335e47eadf13b204a567f4799de16615acc76837ddd364736f6c63430005100032",
  "source": "pragma solidity ^0.5.0;\r\n\r\ncontract MedicineSupplyChain {\r\n    struct Medicine {\r\n        uint256 batchNumber;\r\n        string name;\r\n        string manufacturer;\r\n        string expiryDate;\r\n        string status;  // Example statuses: \"manufactured\", \"shipped\", \"received\"\r\n    }\r\n\r\n    mapping(uint256 => Medicine) public medicines;\r\n\r\n    event MedicineRegistered(uint256 batchNumber, string name, string manufacturer);\r\n    event StatusUpdated(uint256 batchNumber, string status);\r\n\r\n    // Register a new batch of medicine\r\n    function registerMedicine(uint256 batchNumber, string memory name, string memory manufacturer, string memory expiryDate) public {\r\n        medicines[batchNumber] = Medicine(batchNumber, name, manufacturer, expiryDate, \"manufactured\");\r\n        emit MedicineRegistered(batchNumber, name, manufacturer);\r\n    }\r\n\r\n    // Update the status of the medicine batch\r\n    function updateMedicineStatus(uint256 batchNumber, string memory newStatus) public {\r\n        require(bytes(medicines[batchNumber].name).length > 0, \"Medicine not registered\");\r\n        medicines[batchNumber].status = newStatus;\r\n        emit StatusUpdated(batchNumber, newStatus);\r\n    }\r\n}\r\n",
  "sourcePath": "C:\\Users\\Shivansh Sood\\Desktop\\pharmachain\\contracts\\MedicineSupplyChain.sol",
  "compiler": {
    "name": "solc",
    "version": "0.5.16+commit.9c3226ce.Emscripten.clang"
  },
  "schemaVersion": "3.4.16",
  "updatedAt": "2024-10-07T06:48:18.059Z",
  "networkType": "ethereum",
  "devdoc": {
    "methods": {}
  },
  "userdoc": {
    "methods": {}
  }
}